{
  "contractName": "CrossBorderPayment",
  "abi": [
    {
      "inputs": [],
      "stateMutability": "nonpayable",
      "type": "constructor"
    },
    {
      "anonymous": false,
      "inputs": [
        {
          "indexed": true,
          "internalType": "address",
          "name": "sender",
          "type": "address"
        },
        {
          "indexed": true,
          "internalType": "address",
          "name": "receiver",
          "type": "address"
        },
        {
          "indexed": false,
          "internalType": "uint256",
          "name": "amount",
          "type": "uint256"
        }
      ],
      "name": "PaymentSent",
      "type": "event"
    },
    {
      "inputs": [],
      "name": "owner",
      "outputs": [
        {
          "internalType": "address",
          "name": "",
          "type": "address"
        }
      ],
      "stateMutability": "view",
      "type": "function",
      "constant": true
    },
    {
      "inputs": [
        {
          "internalType": "address payable",
          "name": "receiver",
          "type": "address"
        }
      ],
      "name": "sendPayment",
      "outputs": [],
      "stateMutability": "payable",
      "type": "function",
      "payable": true
    }
  ],
  "bytecode": "0x608060405234801561001057600080fd5b50336000806101000a81548173ffffffffffffffffffffffffffffffffffffffff021916908373ffffffffffffffffffffffffffffffffffffffff160217905550610531806100606000396000f3fe6080604052600436106100295760003560e01c80638a7644a81461002e5780638da5cb5b1461004a575b600080fd5b610048600480360381019061004391906102c3565b610075565b005b34801561005657600080fd5b5061005f61023c565b60405161006c9190610311565b60405180910390f35b600034116100b8576040517f08c379a00000000000000000000000000000000000000000000000000000000081526004016100af90610389565b60405180910390fd5b600073ffffffffffffffffffffffffffffffffffffffff168173ffffffffffffffffffffffffffffffffffffffff1603610127576040517f08c379a000000000000000000000000000000000000000000000000000000000815260040161011e906103f5565b60405180910390fd5b60008173ffffffffffffffffffffffffffffffffffffffff163460405161014d90610446565b60006040518083038185875af1925050503d806000811461018a576040519150601f19603f3d011682016040523d82523d6000602084013e61018f565b606091505b50509050806101d3576040517f08c379a00000000000000000000000000000000000000000000000000000000081526004016101ca906104a7565b60405180910390fd5b8173ffffffffffffffffffffffffffffffffffffffff163373ffffffffffffffffffffffffffffffffffffffff167fd52bd61f7c422d441e024604f4517878fd3305d6acf0fe37baef23ed21af6bc93460405161023091906104e0565b60405180910390a35050565b60008054906101000a900473ffffffffffffffffffffffffffffffffffffffff1681565b600080fd5b600073ffffffffffffffffffffffffffffffffffffffff82169050919050565b600061029082610265565b9050919050565b6102a081610285565b81146102ab57600080fd5b50565b6000813590506102bd81610297565b92915050565b6000602082840312156102d9576102d8610260565b5b60006102e7848285016102ae565b91505092915050565b60006102fb82610265565b9050919050565b61030b816102f0565b82525050565b60006020820190506103266000830184610302565b92915050565b600082825260208201905092915050565b7f5061796d656e74206d7573742062652067726561746572207468616e20300000600082015250565b6000610373601e8361032c565b915061037e8261033d565b602082019050919050565b600060208201905081810360008301526103a281610366565b9050919050565b7f496e76616c696420726563656976657220616464726573730000000000000000600082015250565b60006103df60188361032c565b91506103ea826103a9565b602082019050919050565b6000602082019050818103600083015261040e816103d2565b9050919050565b600081905092915050565b50565b6000610430600083610415565b915061043b82610420565b600082019050919050565b600061045182610423565b9150819050919050565b7f5472616e73666572206661696c65640000000000000000000000000000000000600082015250565b6000610491600f8361032c565b915061049c8261045b565b602082019050919050565b600060208201905081810360008301526104c081610484565b9050919050565b6000819050919050565b6104da816104c7565b82525050565b60006020820190506104f560008301846104d1565b9291505056fea2646970667358221220dc98777cbad3811aec41b0b1fe7b7f2983c1884b57baf54b333e5b46a0fa551164736f6c634300080d0033",
  "immutableReferences": {},
  "source": "// SPDX-License-Identifier: MIT\r\npragma solidity >=0.4.22 <0.9.0;\r\n\r\ncontract CrossBorderPayment {\r\n    address public owner;\r\n\r\n    constructor() {\r\n        owner = msg.sender;\r\n    }\r\n\r\n    event PaymentSent(address indexed sender, address indexed receiver, uint amount);\r\n\r\n    function sendPayment(address payable receiver) public payable {\r\n        require(msg.value > 0, \"Payment must be greater than 0\");\r\n        require(receiver != address(0), \"Invalid receiver address\");\r\n\r\n        (bool success, ) = receiver.call{value: msg.value}(\"\");\r\n        require(success, \"Transfer failed\");\r\n\r\n        emit PaymentSent(msg.sender, receiver, msg.value);\r\n    }\r\n}\r\n",
  "sourcePath": "C:\\Users\\HP\\CrossBorderPayments\\contracts\\CrossBorderPayment.sol",
  "compiler": {
    "name": "solc",
    "version": "0.8.13+commit.abaa5c0e.Emscripten.clang"
  },
  "schemaVersion": "3.4.16",
  "updatedAt": "2024-10-12T07:50:40.205Z",
  "networkType": "ethereum",
  "devdoc": {
    "kind": "dev",
    "methods": {},
    "version": 1
  },
  "userdoc": {
    "kind": "user",
    "methods": {},
    "version": 1
  }
}